{
  "address": "0xD37E8a33c46A0832D24F05A3736e1964B3D943A5",
  "abi": [
    {
      "inputs": [
        {
          "internalType": "address",
          "name": "_cornDEX",
          "type": "address"
        },
        {
          "internalType": "address",
          "name": "_corn",
          "type": "address"
        }
      ],
      "stateMutability": "nonpayable",
      "type": "constructor"
    },
    {
      "inputs": [],
      "name": "Lending__InsufficientLiquidatorCorn",
      "type": "error"
    },
    {
      "inputs": [],
      "name": "Lending__InvalidAmount",
      "type": "error"
    },
    {
      "inputs": [],
      "name": "Lending__NotLiquidatable",
      "type": "error"
    },
    {
      "inputs": [],
      "name": "Lending__RepayingFailed",
      "type": "error"
    },
    {
      "inputs": [],
      "name": "Lending__UnsafePositionRatio",
      "type": "error"
    },
    {
      "inputs": [
        {
          "internalType": "address",
          "name": "owner",
          "type": "address"
        }
      ],
      "name": "OwnableInvalidOwner",
      "type": "error"
    },
    {
      "inputs": [
        {
          "internalType": "address",
          "name": "account",
          "type": "address"
        }
      ],
      "name": "OwnableUnauthorizedAccount",
      "type": "error"
    },
    {
      "anonymous": false,
      "inputs": [
        {
          "indexed": true,
          "internalType": "address",
          "name": "user",
          "type": "address"
        },
        {
          "indexed": true,
          "internalType": "uint256",
          "name": "amount",
          "type": "uint256"
        },
        {
          "indexed": false,
          "internalType": "uint256",
          "name": "price",
          "type": "uint256"
        }
      ],
      "name": "AssetBorrowed",
      "type": "event"
    },
    {
      "anonymous": false,
      "inputs": [
        {
          "indexed": true,
          "internalType": "address",
          "name": "user",
          "type": "address"
        },
        {
          "indexed": true,
          "internalType": "uint256",
          "name": "amount",
          "type": "uint256"
        },
        {
          "indexed": false,
          "internalType": "uint256",
          "name": "price",
          "type": "uint256"
        }
      ],
      "name": "AssetRepaid",
      "type": "event"
    },
    {
      "anonymous": false,
      "inputs": [
        {
          "indexed": true,
          "internalType": "address",
          "name": "user",
          "type": "address"
        },
        {
          "indexed": true,
          "internalType": "uint256",
          "name": "amount",
          "type": "uint256"
        },
        {
          "indexed": false,
          "internalType": "uint256",
          "name": "price",
          "type": "uint256"
        }
      ],
      "name": "CollateralAdded",
      "type": "event"
    },
    {
      "anonymous": false,
      "inputs": [
        {
          "indexed": true,
          "internalType": "address",
          "name": "user",
          "type": "address"
        },
        {
          "indexed": true,
          "internalType": "uint256",
          "name": "amount",
          "type": "uint256"
        },
        {
          "indexed": false,
          "internalType": "uint256",
          "name": "price",
          "type": "uint256"
        }
      ],
      "name": "CollateralWithdrawn",
      "type": "event"
    },
    {
      "anonymous": false,
      "inputs": [
        {
          "indexed": true,
          "internalType": "address",
          "name": "user",
          "type": "address"
        },
        {
          "indexed": true,
          "internalType": "address",
          "name": "liquidator",
          "type": "address"
        },
        {
          "indexed": false,
          "internalType": "uint256",
          "name": "amountForLiquidator",
          "type": "uint256"
        },
        {
          "indexed": false,
          "internalType": "uint256",
          "name": "liquidatedUserDebt",
          "type": "uint256"
        },
        {
          "indexed": false,
          "internalType": "uint256",
          "name": "price",
          "type": "uint256"
        }
      ],
      "name": "Liquidation",
      "type": "event"
    },
    {
      "anonymous": false,
      "inputs": [
        {
          "indexed": true,
          "internalType": "address",
          "name": "previousOwner",
          "type": "address"
        },
        {
          "indexed": true,
          "internalType": "address",
          "name": "newOwner",
          "type": "address"
        }
      ],
      "name": "OwnershipTransferred",
      "type": "event"
    },
    {
      "inputs": [],
      "name": "addCollateral",
      "outputs": [],
      "stateMutability": "payable",
      "type": "function"
    },
    {
      "inputs": [
        {
          "internalType": "uint256",
          "name": "borrowAmount",
          "type": "uint256"
        }
      ],
      "name": "borrowCorn",
      "outputs": [],
      "stateMutability": "nonpayable",
      "type": "function"
    },
    {
      "inputs": [
        {
          "internalType": "address",
          "name": "user",
          "type": "address"
        }
      ],
      "name": "calculateCollateralValue",
      "outputs": [
        {
          "internalType": "uint256",
          "name": "",
          "type": "uint256"
        }
      ],
      "stateMutability": "view",
      "type": "function"
    },
    {
      "inputs": [
        {
          "internalType": "contract IFlashLoanRecipient",
          "name": "_recipient",
          "type": "address"
        },
        {
          "internalType": "uint256",
          "name": "_amount",
          "type": "uint256"
        },
        {
          "internalType": "address",
          "name": "_extraParam",
          "type": "address"
        }
      ],
      "name": "flashLoan",
      "outputs": [],
      "stateMutability": "nonpayable",
      "type": "function"
    },
    {
      "inputs": [
        {
          "internalType": "uint256",
          "name": "collateralAmount",
          "type": "uint256"
        }
      ],
      "name": "getMaxBorrowAmount",
      "outputs": [
        {
          "internalType": "uint256",
          "name": "",
          "type": "uint256"
        }
      ],
      "stateMutability": "view",
      "type": "function"
    },
    {
      "inputs": [
        {
          "internalType": "address",
          "name": "user",
          "type": "address"
        }
      ],
      "name": "getMaxWithdrawableCollateral",
      "outputs": [
        {
          "internalType": "uint256",
          "name": "",
          "type": "uint256"
        }
      ],
      "stateMutability": "view",
      "type": "function"
    },
    {
      "inputs": [
        {
          "internalType": "address",
          "name": "user",
          "type": "address"
        }
      ],
      "name": "isLiquidatable",
      "outputs": [
        {
          "internalType": "bool",
          "name": "",
          "type": "bool"
        }
      ],
      "stateMutability": "view",
      "type": "function"
    },
    {
      "inputs": [
        {
          "internalType": "address",
          "name": "user",
          "type": "address"
        }
      ],
      "name": "liquidate",
      "outputs": [],
      "stateMutability": "nonpayable",
      "type": "function"
    },
    {
      "inputs": [],
      "name": "owner",
      "outputs": [
        {
          "internalType": "address",
          "name": "",
          "type": "address"
        }
      ],
      "stateMutability": "view",
      "type": "function"
    },
    {
      "inputs": [],
      "name": "renounceOwnership",
      "outputs": [],
      "stateMutability": "nonpayable",
      "type": "function"
    },
    {
      "inputs": [
        {
          "internalType": "uint256",
          "name": "repayAmount",
          "type": "uint256"
        }
      ],
      "name": "repayCorn",
      "outputs": [],
      "stateMutability": "nonpayable",
      "type": "function"
    },
    {
      "inputs": [
        {
          "internalType": "address",
          "name": "",
          "type": "address"
        }
      ],
      "name": "s_userBorrowed",
      "outputs": [
        {
          "internalType": "uint256",
          "name": "",
          "type": "uint256"
        }
      ],
      "stateMutability": "view",
      "type": "function"
    },
    {
      "inputs": [
        {
          "internalType": "address",
          "name": "",
          "type": "address"
        }
      ],
      "name": "s_userCollateral",
      "outputs": [
        {
          "internalType": "uint256",
          "name": "",
          "type": "uint256"
        }
      ],
      "stateMutability": "view",
      "type": "function"
    },
    {
      "inputs": [
        {
          "internalType": "address",
          "name": "newOwner",
          "type": "address"
        }
      ],
      "name": "transferOwnership",
      "outputs": [],
      "stateMutability": "nonpayable",
      "type": "function"
    },
    {
      "inputs": [
        {
          "internalType": "uint256",
          "name": "amount",
          "type": "uint256"
        }
      ],
      "name": "withdrawCollateral",
      "outputs": [],
      "stateMutability": "nonpayable",
      "type": "function"
    }
  ],
  "transactionHash": "0x2fce37ad954973a8533227d644b96a2bffdfb562e56970ebfc79df5120c8e660",
  "args": [
    "0x2553e2a90BFc49546d8Fa28FaE5b5b0c6A6E5e88",
    "0xA61493CC1933162B5759FFe862671862d713476d"
  ],
  "numDeployments": 1,
  "solcInputHash": "ffe27e068bb6deb9039b3f36020fdb0c",
  "bytecode": "0x60806040523480156200001157600080fd5b50604051620017f7380380620017f7833981016040819052620000349162000106565b33806200005b57604051631e4fbdf760e01b81526000600482015260240160405180910390fd5b620000668162000099565b50600280546001600160a01b039384166001600160a01b031991821617909155600180549290931691161790556200013e565b600080546001600160a01b038381166001600160a01b0319831681178455604051919092169283917f8be0079c531659141344cd1fd0a4f28419497f9722a3daafe3b4186f6b6457e09190a35050565b80516001600160a01b03811681146200010157600080fd5b919050565b600080604083850312156200011a57600080fd5b6200012583620000e9565b91506200013560208401620000e9565b90509250929050565b6116a9806200014e6000396000f3fe6080604052600436106100e85760003560e01c8063715018a61161008a578063bd00c24d11610059578063bd00c24d14610264578063d5de45a614610291578063d678598a146102b1578063f2fde38b146102d157600080fd5b8063715018a6146101ff5780638da5cb5b146102145780639210ae641461023c5780639e8169991461025c57600080fd5b80632a5f2c23116100c65780632a5f2c23146101725780632f8655681461019f5780636112fe2e146101bf57806361a4d4ef146101df57600080fd5b806302c25b54146100ed578063042e02cf1461010f5780630835e14514610144575b600080fd5b3480156100f957600080fd5b5061010d6101083660046114b9565b6102f1565b005b34801561011b57600080fd5b5061012f61012a3660046114fb565b6104b6565b60405190151581526020015b60405180910390f35b34801561015057600080fd5b5061016461015f3660046114fb565b6104cc565b60405190815260200161013b565b34801561017e57600080fd5b5061016461018d3660046114fb565b60046020526000908152604090205481565b3480156101ab57600080fd5b5061010d6101ba3660046114fb565b610581565b3480156101cb57600080fd5b5061010d6101da366004611518565b610a56565b3480156101eb57600080fd5b506101646101fa366004611518565b610c56565b34801561020b57600080fd5b5061010d610d1e565b34801561022057600080fd5b506000546040516001600160a01b03909116815260200161013b565b34801561024857600080fd5b506101646102573660046114fb565b610d32565b61010d610e4a565b34801561027057600080fd5b5061016461027f3660046114fb565b60036020526000908152604090205481565b34801561029d57600080fd5b5061010d6102ac366004611518565b610f47565b3480156102bd57600080fd5b5061010d6102cc366004611518565b6110c3565b3480156102dd57600080fd5b5061010d6102ec3660046114fb565b6112b8565b6001546040516308934a5f60e31b81526001600160a01b038581166004830152602482018590529091169063449a52f8906044016020604051808303816000875af1158015610344573d6000803e3d6000fd5b505050506040513d601f19601f820116820180604052508101906103689190611531565b5060405163542e3d5360e11b8152600481018390523360248201526001600160a01b0382811660448301526000919085169063a85c7aa6906064016020604051808303816000875af11580156103c2573d6000803e3d6000fd5b505050506040513d601f19601f820116820180604052508101906103e69190611531565b90508061043a5760405162461bcd60e51b815260206004820152601a60248201527f4f7065726174696f6e2077617320756e7375636365737366756c00000000000060448201526064015b60405180910390fd5b60015460405163079cc67960e41b8152306004820152602481018590526001600160a01b03909116906379cc6790906044016020604051808303816000875af115801561048b573d6000803e3d6000fd5b505050506040513d601f19601f820116820180604052508101906104af9190611531565b5050505050565b6000806104c2836112f6565b6078119392505050565b6000670de0b6b3a7640000600260009054906101000a90046001600160a01b03166001600160a01b0316639d1b464a6040518163ffffffff1660e01b8152600401602060405180830381865afa15801561052a573d6000803e3d6000fd5b505050506040513d601f19601f8201168201806040525081019061054e9190611553565b6001600160a01b0384166000908152600360205260409020546105719190611582565b61057b9190611599565b92915050565b61058a816104b6565b6105a75760405163175ae04960e11b815260040160405180910390fd5b600060046000836001600160a01b03166001600160a01b031681526020019081526020016000205490506105fb604051806040016040528060088152602001671d5cd95c9119589d60c21b8152508261134d565b6106276040518060400160405280600a81526020016936b9b39739b2b73232b960b11b81525033611396565b604080518082018252601c81527f695f636f726e2e62616c616e63654f66286d73672e73656e6465722900000000602082015260015491516370a0823160e01b81523360048201526106cc926001600160a01b0316906370a0823190602401602060405180830381865afa1580156106a3573d6000803e3d6000fd5b505050506040513d601f19601f820116820180604052508101906106c79190611553565b61134d565b6001546040516370a0823160e01b815233600482015282916001600160a01b0316906370a0823190602401602060405180830381865afa158015610714573d6000803e3d6000fd5b505050506040513d601f19601f820116820180604052508101906107389190611553565b1015610757576040516327f93fb360e11b815260040160405180910390fd5b6001546040516323b872dd60e01b8152336004820152306024820152604481018390526001600160a01b03909116906323b872dd906064016020604051808303816000875af11580156107ae573d6000803e3d6000fd5b505050506040513d601f19601f820116820180604052508101906107d29190611531565b5060015460405163079cc67960e41b8152306004820152602481018390526001600160a01b03909116906379cc6790906044016020604051808303816000875af1158015610824573d6000803e3d6000fd5b505050506040513d601f19601f820116820180604052508101906108489190611531565b506001600160a01b0382166000908152600460209081526040808320839055600390915281205490610879846104cc565b90506000816108888486611582565b6108929190611599565b9050600060646108a3600a84611582565b6108ad9190611599565b905060006108bb82846115bb565b90508481116108ca57806108cc565b845b90506108d881866115ce565b6001600160a01b038816600090815260036020526040808220929092559051339083908381818185875af1925050503d8060008114610933576040519150601f19603f3d011682016040523d82523d6000602084013e610938565b606091505b50509050806109805760405162461bcd60e51b81526020600482015260146024820152732330b4b632b2103a379039b2b7321022ba3432b960611b6044820152606401610431565b336001600160a01b0316886001600160a01b03167f5a821a618ddb1a1fd304234a69c9d7f20c129d122fcf35593d13a07192664307848a600260009054906101000a90046001600160a01b03166001600160a01b0316639d1b464a6040518163ffffffff1660e01b8152600401602060405180830381865afa158015610a0a573d6000803e3d6000fd5b505050506040513d601f19601f82011682018060405250810190610a2e9190611553565b6040805193845260208401929092529082015260600160405180910390a35050505050505050565b80600003610a775760405163269cf19b60e11b815260040160405180910390fd5b33600090815260036020526040902054811115610aa75760405163269cf19b60e11b815260040160405180910390fd5b3360009081526004602052604090205415610aef573360009081526003602052604081208054839290610adb9084906115ce565b90915550610aea9050336113db565b610b14565b3360009081526003602052604081208054839290610b0e9084906115ce565b90915550505b604051600090339083908381818185875af1925050503d8060008114610b56576040519150601f19603f3d011682016040523d82523d6000602084013e610b5b565b606091505b5050905080610b9e5760405162461bcd60e51b815260206004820152600f60248201526e151c985b9cd9995c8819985a5b1959608a1b6044820152606401610431565b81336001600160a01b03167fdaed309a628faec6cab72194019e2a1a34e890ca9bf9be99788992dd54692819600260009054906101000a90046001600160a01b03166001600160a01b0316639d1b464a6040518163ffffffff1660e01b8152600401602060405180830381865afa158015610c1d573d6000803e3d6000fd5b505050506040513d601f19601f82011682018060405250810190610c419190611553565b60405190815260200160405180910390a35050565b600081600003610c6857506000919050565b6000670de0b6b3a7640000600260009054906101000a90046001600160a01b03166001600160a01b0316639d1b464a6040518163ffffffff1660e01b8152600401602060405180830381865afa158015610cc6573d6000803e3d6000fd5b505050506040513d601f19601f82011682018060405250810190610cea9190611553565b610cf49085611582565b610cfe9190611599565b90506078610d0d826064611582565b610d179190611599565b9392505050565b610d26611402565b610d30600061142f565b565b6001600160a01b0381166000908152600460209081526040808320546003909252822054818303610d64579392505050565b6000610d6f82610c56565b9050808303610d8357506000949350505050565b6000610d8f84836115ce565b90506000600260009054906101000a90046001600160a01b03166001600160a01b0316639d1b464a6040518163ffffffff1660e01b8152600401602060405180830381865afa158015610de6573d6000803e3d6000fd5b505050506040513d601f19601f82011682018060405250810190610e0a9190611553565b610e1c83670de0b6b3a7640000611582565b610e269190611599565b90506064610e35607883611582565b610e3f9190611599565b979650505050505050565b34600003610e6b5760405163269cf19b60e11b815260040160405180910390fd5b3360009081526003602052604081208054349290610e8a9084906115bb565b9250508190555034336001600160a01b03167f11f8990ac38271f23dea447d5728e9914fca7cea2edda43af6c43c415f8bc30b600260009054906101000a90046001600160a01b03166001600160a01b0316639d1b464a6040518163ffffffff1660e01b8152600401602060405180830381865afa158015610f10573d6000803e3d6000fd5b505050506040513d601f19601f82011682018060405250810190610f349190611553565b60405190815260200160405180910390a3565b80600003610f685760405163269cf19b60e11b815260040160405180910390fd5b3360009081526004602052604081208054839290610f879084906115bb565b90915550610f969050336113db565b6001546040516308934a5f60e31b8152336004820152602481018390526001600160a01b039091169063449a52f8906044016020604051808303816000875af1158015610fe7573d6000803e3d6000fd5b505050506040513d601f19601f8201168201806040525081019061100b9190611531565b5080336001600160a01b03167f6c8250ea4d625c09ee567802242f70b37c9dcfdb10a904563781c1ed7663c7cc600260009054906101000a90046001600160a01b03166001600160a01b0316639d1b464a6040518163ffffffff1660e01b8152600401602060405180830381865afa15801561108b573d6000803e3d6000fd5b505050506040513d601f19601f820116820180604052508101906110af9190611553565b60405190815260200160405180910390a350565b806000036110e45760405163269cf19b60e11b815260040160405180910390fd5b336000908152600460205260409020548111156111145760405163269cf19b60e11b815260040160405180910390fd5b6001546040516370a0823160e01b815233600482015282916001600160a01b0316906370a0823190602401602060405180830381865afa15801561115c573d6000803e3d6000fd5b505050506040513d601f19601f820116820180604052508101906111809190611553565b101561119f5760405163c1cf149f60e01b815260040160405180910390fd5b33600090815260046020526040812080548392906111be9084906115ce565b909155505060015460405163079cc67960e41b8152336004820152602481018390526001600160a01b03909116906379cc6790906044016020604051808303816000875af1158015611214573d6000803e3d6000fd5b505050506040513d601f19601f820116820180604052508101906112389190611531565b5080336001600160a01b03167fc1afad9537411d7ba4a74e9ee309d18f26f72ee1bfc63647b61e9bca0eec322c600260009054906101000a90046001600160a01b03166001600160a01b0316639d1b464a6040518163ffffffff1660e01b8152600401602060405180830381865afa15801561108b573d6000803e3d6000fd5b6112c0611402565b6001600160a01b0381166112ea57604051631e4fbdf760e01b815260006004820152602401610431565b6112f38161142f565b50565b600080611302836104cc565b6001600160a01b03841660009081526004602052604081205491925081900361132f575060009392505050565b8061133b836064611582565b6113459190611599565b949350505050565b6113928282604051602401611363929190611627565b60408051601f198184030181529190526020810180516001600160e01b0316632d839cb360e21b17905261147f565b5050565b61139282826040516024016113ac929190611649565b60408051601f198184030181529190526020810180516001600160e01b031663319af33360e01b17905261147f565b6113e4816104b6565b156112f357604051632606396760e21b815260040160405180910390fd5b6000546001600160a01b03163314610d305760405163118cdaa760e01b8152336004820152602401610431565b600080546001600160a01b038381166001600160a01b0319831681178455604051919092169283917f8be0079c531659141344cd1fd0a4f28419497f9722a3daafe3b4186f6b6457e09190a35050565b6112f38160006a636f6e736f6c652e6c6f679050600080835160208501845afa505050565b6001600160a01b03811681146112f357600080fd5b6000806000606084860312156114ce57600080fd5b83356114d9816114a4565b92506020840135915060408401356114f0816114a4565b809150509250925092565b60006020828403121561150d57600080fd5b8135610d17816114a4565b60006020828403121561152a57600080fd5b5035919050565b60006020828403121561154357600080fd5b81518015158114610d1757600080fd5b60006020828403121561156557600080fd5b5051919050565b634e487b7160e01b600052601160045260246000fd5b808202811582820484141761057b5761057b61156c565b6000826115b657634e487b7160e01b600052601260045260246000fd5b500490565b8082018082111561057b5761057b61156c565b8181038181111561057b5761057b61156c565b6000815180845260005b81811015611607576020818501810151868301820152016115eb565b506000602082860101526020601f19601f83011685010191505092915050565b60408152600061163a60408301856115e1565b90508260208301529392505050565b60408152600061165c60408301856115e1565b905060018060a01b0383166020830152939250505056fea26469706673582212205fb92096daf2c45b50a407bc0e6375c633f9e26ed2b932715a8dbf14cf399afb64736f6c63430008140033",
  "devdoc": {
    "errors": {
      "OwnableInvalidOwner(address)": [
        {
          "details": "The owner is not a valid owner account. (eg. `address(0)`)"
        }
      ],
      "OwnableUnauthorizedAccount(address)": [
        {
          "details": "The caller account is not authorized to perform an operation."
        }
      ]
    },
    "kind": "dev",
    "methods": {
      "borrowCorn(uint256)": {
        "params": {
          "borrowAmount": "The amount of corn to borrow"
        }
      },
      "calculateCollateralValue(address)": {
        "params": {
          "user": "The address of the user to calculate the collateral value for"
        },
        "returns": {
          "_0": "uint256 The collateral value"
        }
      },
      "isLiquidatable(address)": {
        "params": {
          "user": "The address of the user to check"
        },
        "returns": {
          "_0": "bool True if the position is liquidatable, false otherwise"
        }
      },
      "liquidate(address)": {
        "details": "The caller must have enough CORN to pay back user's debtThe caller must have approved this contract to transfer the debt",
        "params": {
          "user": "The address of the user to liquidate"
        }
      },
      "owner()": {
        "details": "Returns the address of the current owner."
      },
      "renounceOwnership()": {
        "details": "Leaves the contract without owner. It will not be possible to call `onlyOwner` functions. Can only be called by the current owner. NOTE: Renouncing ownership will leave the contract without an owner, thereby disabling any functionality that is only available to the owner."
      },
      "repayCorn(uint256)": {
        "params": {
          "repayAmount": "The amount of corn to repay"
        }
      },
      "transferOwnership(address)": {
        "details": "Transfers ownership of the contract to a new account (`newOwner`). Can only be called by the current owner."
      },
      "withdrawCollateral(uint256)": {
        "params": {
          "amount": "The amount of collateral to withdraw"
        }
      }
    },
    "version": 1
  },
  "userdoc": {
    "kind": "user",
    "methods": {
      "addCollateral()": {
        "notice": "Allows users to add collateral to their account"
      },
      "borrowCorn(uint256)": {
        "notice": "Allows users to borrow corn based on their collateral"
      },
      "calculateCollateralValue(address)": {
        "notice": "Calculates the total collateral value for a user based on their collateral balance"
      },
      "isLiquidatable(address)": {
        "notice": "Checks if a user's position can be liquidated"
      },
      "liquidate(address)": {
        "notice": "Allows liquidators to liquidate unsafe positions"
      },
      "repayCorn(uint256)": {
        "notice": "Allows users to repay corn and reduce their debt"
      },
      "withdrawCollateral(uint256)": {
        "notice": "Allows users to withdraw collateral as long as it doesn't make them liquidatable"
      }
    },
    "version": 1
  },
  "storageLayout": {
    "storage": [
      {
        "astId": 8,
        "contract": "contracts/Lending.sol:Lending",
        "label": "_owner",
        "offset": 0,
        "slot": "0",
        "type": "t_address"
      },
      {
        "astId": 1887,
        "contract": "contracts/Lending.sol:Lending",
        "label": "i_corn",
        "offset": 0,
        "slot": "1",
        "type": "t_contract(Corn)1041"
      },
      {
        "astId": 1890,
        "contract": "contracts/Lending.sol:Lending",
        "label": "i_cornDEX",
        "offset": 0,
        "slot": "2",
        "type": "t_contract(CornDEX)1693"
      },
      {
        "astId": 1894,
        "contract": "contracts/Lending.sol:Lending",
        "label": "s_userCollateral",
        "offset": 0,
        "slot": "3",
        "type": "t_mapping(t_address,t_uint256)"
      },
      {
        "astId": 1898,
        "contract": "contracts/Lending.sol:Lending",
        "label": "s_userBorrowed",
        "offset": 0,
        "slot": "4",
        "type": "t_mapping(t_address,t_uint256)"
      }
    ],
    "types": {
      "t_address": {
        "encoding": "inplace",
        "label": "address",
        "numberOfBytes": "20"
      },
      "t_contract(Corn)1041": {
        "encoding": "inplace",
        "label": "contract Corn",
        "numberOfBytes": "20"
      },
      "t_contract(CornDEX)1693": {
        "encoding": "inplace",
        "label": "contract CornDEX",
        "numberOfBytes": "20"
      },
      "t_mapping(t_address,t_uint256)": {
        "encoding": "mapping",
        "key": "t_address",
        "label": "mapping(address => uint256)",
        "numberOfBytes": "32",
        "value": "t_uint256"
      },
      "t_uint256": {
        "encoding": "inplace",
        "label": "uint256",
        "numberOfBytes": "32"
      }
    }
  }
}