{
  "address": "0x13B43DbE1dd2d53b20f289Bf38F5B2cE447142AA",
  "abi": [
    {
      "inputs": [
        {
          "internalType": "address payable",
          "name": "diceGameAddress",
          "type": "address"
        }
      ],
      "stateMutability": "nonpayable",
      "type": "constructor"
    },
    {
      "inputs": [
        {
          "internalType": "address",
          "name": "owner",
          "type": "address"
        }
      ],
      "name": "OwnableInvalidOwner",
      "type": "error"
    },
    {
      "inputs": [
        {
          "internalType": "address",
          "name": "account",
          "type": "address"
        }
      ],
      "name": "OwnableUnauthorizedAccount",
      "type": "error"
    },
    {
      "anonymous": false,
      "inputs": [
        {
          "indexed": true,
          "internalType": "address",
          "name": "previousOwner",
          "type": "address"
        },
        {
          "indexed": true,
          "internalType": "address",
          "name": "newOwner",
          "type": "address"
        }
      ],
      "name": "OwnershipTransferred",
      "type": "event"
    },
    {
      "inputs": [],
      "name": "diceGame",
      "outputs": [
        {
          "internalType": "contract DiceGame",
          "name": "",
          "type": "address"
        }
      ],
      "stateMutability": "view",
      "type": "function"
    },
    {
      "inputs": [],
      "name": "isWinningRoll",
      "outputs": [
        {
          "internalType": "bool",
          "name": "",
          "type": "bool"
        }
      ],
      "stateMutability": "view",
      "type": "function"
    },
    {
      "inputs": [],
      "name": "owner",
      "outputs": [
        {
          "internalType": "address",
          "name": "",
          "type": "address"
        }
      ],
      "stateMutability": "view",
      "type": "function"
    },
    {
      "inputs": [],
      "name": "renounceOwnership",
      "outputs": [],
      "stateMutability": "nonpayable",
      "type": "function"
    },
    {
      "inputs": [],
      "name": "riggedRoll",
      "outputs": [],
      "stateMutability": "payable",
      "type": "function"
    },
    {
      "inputs": [
        {
          "internalType": "address",
          "name": "newOwner",
          "type": "address"
        }
      ],
      "name": "transferOwnership",
      "outputs": [],
      "stateMutability": "nonpayable",
      "type": "function"
    },
    {
      "inputs": [
        {
          "internalType": "address",
          "name": "to",
          "type": "address"
        },
        {
          "internalType": "uint256",
          "name": "amount",
          "type": "uint256"
        }
      ],
      "name": "withdraw",
      "outputs": [],
      "stateMutability": "nonpayable",
      "type": "function"
    },
    {
      "stateMutability": "payable",
      "type": "receive"
    }
  ],
  "transactionHash": "0xc4fea9cf9db99374f71ce669192d82ae7bb0a85c56274cdf360bc70a64d76658",
  "args": [
    "0x44804a46D6F4759Ccab524A4a4C0E8dbf85Ed6e1"
  ],
  "numDeployments": 1,
  "solcInputHash": "c8bd1b7676a64b1e246149a1ce87d9ed",
  "bytecode": "0x608060405234801561001057600080fd5b5060405161064538038061064583398101604081905261002f916100d4565b338061005557604051631e4fbdf760e01b81526000600482015260240160405180910390fd5b61005e81610084565b50600180546001600160a01b0319166001600160a01b0392909216919091179055610104565b600080546001600160a01b038381166001600160a01b0319831681178455604051919092169283917f8be0079c531659141344cd1fd0a4f28419497f9722a3daafe3b4186f6b6457e09190a35050565b6000602082840312156100e657600080fd5b81516001600160a01b03811681146100fd57600080fd5b9392505050565b610532806101136000396000f3fe6080604052600436106100745760003560e01c80638e288fd11161004e5780638e288fd1146100d6578063bbaca624146100f6578063f2fde38b1461011b578063f3fef3a31461013b57600080fd5b80636b5e97f814610080578063715018a61461008a5780638da5cb5b1461009f57600080fd5b3661007b57005b600080fd5b61008861015b565b005b34801561009657600080fd5b5061008861022b565b3480156100ab57600080fd5b506000546001600160a01b03165b6040516001600160a01b0390911681526020015b60405180910390f35b3480156100e257600080fd5b506001546100b9906001600160a01b031681565b34801561010257600080fd5b5061010b61023f565b60405190151581526020016100cd565b34801561012757600080fd5b5061008861013636600461044e565b610334565b34801561014757600080fd5b50610088610156366004610470565b610372565b66071afd498d00004710156101ac5760405162461bcd60e51b81526020600482015260126024820152714e6f7420656e6f7567682062616c616e636560701b60448201526064015b60405180910390fd5b6101b461023f565b156101ac57600160009054906101000a90046001600160a01b03166001600160a01b0316637d789dee66071afd498d00006040518263ffffffff1660e01b81526004016000604051808303818588803b15801561021057600080fd5b505af1158015610224573d6000803e3d6000fd5b5050505050565b6102336103b5565b61023d60006103e2565b565b600080600160009054906101000a90046001600160a01b03166001600160a01b031663affed0e06040518163ffffffff1660e01b8152600401602060405180830381865afa158015610295573d6000803e3d6000fd5b505050506040513d601f19601f820116820180604052508101906102b9919061049a565b905060006102c86001436104b3565b6001546040805192406020840181905260609290921b6bffffffffffffffffffffffff19169083015260548201849052915060009060740160408051601f198184030181529190528051602090910120905060006103276010836104da565b6005101595945050505050565b61033c6103b5565b6001600160a01b03811661036657604051631e4fbdf760e01b8152600060048201526024016101a3565b61036f816103e2565b50565b61037a6103b5565b6040516001600160a01b0383169082156108fc029083906000818181858888f193505050501580156103b0573d6000803e3d6000fd5b505050565b6000546001600160a01b0316331461023d5760405163118cdaa760e01b81523360048201526024016101a3565b600080546001600160a01b038381166001600160a01b0319831681178455604051919092169283917f8be0079c531659141344cd1fd0a4f28419497f9722a3daafe3b4186f6b6457e09190a35050565b80356001600160a01b038116811461044957600080fd5b919050565b60006020828403121561046057600080fd5b61046982610432565b9392505050565b6000806040838503121561048357600080fd5b61048c83610432565b946020939093013593505050565b6000602082840312156104ac57600080fd5b5051919050565b818103818111156104d457634e487b7160e01b600052601160045260246000fd5b92915050565b6000826104f757634e487b7160e01b600052601260045260246000fd5b50069056fea264697066735822122048753eedd85b354c1feaef5fa01bb0d73f7e5502e379cc3fed0e266ed2aed62d64736f6c63430008140033",
  "devdoc": {
    "errors": {
      "OwnableInvalidOwner(address)": [
        {
          "details": "The owner is not a valid owner account. (eg. `address(0)`)"
        }
      ],
      "OwnableUnauthorizedAccount(address)": [
        {
          "details": "The caller account is not authorized to perform an operation."
        }
      ]
    },
    "kind": "dev",
    "methods": {
      "owner()": {
        "details": "Returns the address of the current owner."
      },
      "renounceOwnership()": {
        "details": "Leaves the contract without owner. It will not be possible to call `onlyOwner` functions. Can only be called by the current owner. NOTE: Renouncing ownership will leave the contract without an owner, thereby disabling any functionality that is only available to the owner."
      },
      "transferOwnership(address)": {
        "details": "Transfers ownership of the contract to a new account (`newOwner`). Can only be called by the current owner."
      }
    },
    "version": 1
  },
  "userdoc": {
    "kind": "user",
    "methods": {},
    "version": 1
  },
  "storageLayout": {
    "storage": [
      {
        "astId": 8,
        "contract": "contracts/RiggedRoll.sol:RiggedRoll",
        "label": "_owner",
        "offset": 0,
        "slot": "0",
        "type": "t_address"
      },
      {
        "astId": 351,
        "contract": "contracts/RiggedRoll.sol:RiggedRoll",
        "label": "diceGame",
        "offset": 0,
        "slot": "1",
        "type": "t_contract(DiceGame)341"
      }
    ],
    "types": {
      "t_address": {
        "encoding": "inplace",
        "label": "address",
        "numberOfBytes": "20"
      },
      "t_contract(DiceGame)341": {
        "encoding": "inplace",
        "label": "contract DiceGame",
        "numberOfBytes": "20"
      }
    }
  }
}